{
  "_format": "hh-sol-artifact-1",
  "contractName": "CrowdFunding",
  "sourceName": "contracts/CrowdFunding.sol",
  "abi": [
    {
      "inputs": [],
      "name": "_lengthDonor",
      "outputs": [
        {
          "internalType": "uint256",
          "name": "",
          "type": "uint256"
        }
      ],
      "stateMutability": "view",
      "type": "function"
    },
    {
      "inputs": [],
      "name": "_lengthVoter",
      "outputs": [
        {
          "internalType": "uint256",
          "name": "",
          "type": "uint256"
        }
      ],
      "stateMutability": "view",
      "type": "function"
    },
    {
      "inputs": [
        {
          "internalType": "uint256",
          "name": "_id",
          "type": "uint256"
        }
      ],
      "name": "acceptCompletion",
      "outputs": [],
      "stateMutability": "nonpayable",
      "type": "function"
    },
    {
      "inputs": [
        {
          "internalType": "address",
          "name": "_creatorAddress",
          "type": "address"
        },
        {
          "internalType": "uint256",
          "name": "_id",
          "type": "uint256"
        },
        {
          "internalType": "string",
          "name": "_url",
          "type": "string"
        }
      ],
      "name": "closeCampaign",
      "outputs": [],
      "stateMutability": "nonpayable",
      "type": "function"
    },
    {
      "inputs": [
        {
          "internalType": "address",
          "name": "_creatorAddress",
          "type": "address"
        },
        {
          "internalType": "uint256",
          "name": "_id",
          "type": "uint256"
        }
      ],
      "name": "deleteCampaign",
      "outputs": [],
      "stateMutability": "nonpayable",
      "type": "function"
    },
    {
      "inputs": [
        {
          "internalType": "address",
          "name": "_creatorAddress",
          "type": "address"
        },
        {
          "internalType": "uint256",
          "name": "_id",
          "type": "uint256"
        }
      ],
      "name": "fund",
      "outputs": [],
      "stateMutability": "payable",
      "type": "function"
    },
    {
      "inputs": [],
      "name": "getCampaigns",
      "outputs": [
        {
          "components": [
            {
              "internalType": "string",
              "name": "title",
              "type": "string"
            },
            {
              "internalType": "string",
              "name": "description",
              "type": "string"
            },
            {
              "internalType": "address",
              "name": "creator_address",
              "type": "address"
            },
            {
              "internalType": "uint256",
              "name": "id",
              "type": "uint256"
            },
            {
              "internalType": "string",
              "name": "url",
              "type": "string"
            },
            {
              "internalType": "uint256",
              "name": "target",
              "type": "uint256"
            },
            {
              "internalType": "uint256",
              "name": "funds_raised",
              "type": "uint256"
            },
            {
              "internalType": "bool",
              "name": "active",
              "type": "bool"
            },
            {
              "internalType": "bool",
              "name": "raising_funds",
              "type": "bool"
            },
            {
              "internalType": "bool",
              "name": "isDeleted",
              "type": "bool"
            }
          ],
          "internalType": "struct CrowdFunding.Campaign[]",
          "name": "",
          "type": "tuple[]"
        }
      ],
      "stateMutability": "view",
      "type": "function"
    },
    {
      "inputs": [
        {
          "internalType": "address",
          "name": "_creatorAddress",
          "type": "address"
        }
      ],
      "name": "getMyCampaigns",
      "outputs": [
        {
          "components": [
            {
              "internalType": "string",
              "name": "title",
              "type": "string"
            },
            {
              "internalType": "string",
              "name": "description",
              "type": "string"
            },
            {
              "internalType": "address",
              "name": "creator_address",
              "type": "address"
            },
            {
              "internalType": "uint256",
              "name": "id",
              "type": "uint256"
            },
            {
              "internalType": "string",
              "name": "url",
              "type": "string"
            },
            {
              "internalType": "uint256",
              "name": "target",
              "type": "uint256"
            },
            {
              "internalType": "uint256",
              "name": "funds_raised",
              "type": "uint256"
            },
            {
              "internalType": "bool",
              "name": "active",
              "type": "bool"
            },
            {
              "internalType": "bool",
              "name": "raising_funds",
              "type": "bool"
            },
            {
              "internalType": "bool",
              "name": "isDeleted",
              "type": "bool"
            }
          ],
          "internalType": "struct CrowdFunding.Campaign[]",
          "name": "",
          "type": "tuple[]"
        }
      ],
      "stateMutability": "view",
      "type": "function"
    },
    {
      "inputs": [
        {
          "internalType": "address",
          "name": "_donorAddress",
          "type": "address"
        }
      ],
      "name": "getMyDonations",
      "outputs": [
        {
          "components": [
            {
              "internalType": "string",
              "name": "title",
              "type": "string"
            },
            {
              "internalType": "string",
              "name": "description",
              "type": "string"
            },
            {
              "internalType": "address",
              "name": "creator_address",
              "type": "address"
            },
            {
              "internalType": "uint256",
              "name": "id",
              "type": "uint256"
            },
            {
              "internalType": "string",
              "name": "url",
              "type": "string"
            },
            {
              "internalType": "uint256",
              "name": "target",
              "type": "uint256"
            },
            {
              "internalType": "uint256",
              "name": "funds_raised",
              "type": "uint256"
            },
            {
              "internalType": "bool",
              "name": "active",
              "type": "bool"
            },
            {
              "internalType": "bool",
              "name": "raising_funds",
              "type": "bool"
            },
            {
              "internalType": "bool",
              "name": "isDeleted",
              "type": "bool"
            }
          ],
          "internalType": "struct CrowdFunding.Campaign[]",
          "name": "",
          "type": "tuple[]"
        }
      ],
      "stateMutability": "view",
      "type": "function"
    },
    {
      "inputs": [
        {
          "internalType": "string",
          "name": "_title",
          "type": "string"
        },
        {
          "internalType": "string",
          "name": "_description",
          "type": "string"
        },
        {
          "internalType": "string",
          "name": "_url",
          "type": "string"
        },
        {
          "internalType": "uint256",
          "name": "_target",
          "type": "uint256"
        }
      ],
      "name": "openCampaign",
      "outputs": [],
      "stateMutability": "nonpayable",
      "type": "function"
    },
    {
      "inputs": [
        {
          "internalType": "address payable",
          "name": "_creatorAddress",
          "type": "address"
        },
        {
          "internalType": "uint256",
          "name": "_id",
          "type": "uint256"
        }
      ],
      "name": "withdraw",
      "outputs": [],
      "stateMutability": "payable",
      "type": "function"
    }
  ],
  "bytecode": "0x608060405234801561001057600080fd5b50613861806100206000396000f3fe60806040526004361061009c5760003560e01c80637b1837de116100645780637b1837de146101985780638c750442146101b4578063a6b03633146101dd578063c89b36f014610208578063f3fef3a314610233578063ffe277341461024f5761009c565b80632140bf26146100a15780634d57b5a5146100ca57806353409a2d146101075780635489aea61461013257806364c909661461015b575b600080fd5b3480156100ad57600080fd5b506100c860048036038101906100c39190612c51565b610278565b005b3480156100d657600080fd5b506100f160048036038101906100ec9190612be4565b6105a0565b6040516100fe919061311c565b60405180910390f35b34801561011357600080fd5b5061011c6109ac565b604051610129919061325e565b60405180910390f35b34801561013e57600080fd5b5061015960048036038101906101549190612c91565b6109b2565b005b34801561016757600080fd5b50610182600480360381019061017d9190612be4565b610d33565b60405161018f919061311c565b60405180910390f35b6101b260048036038101906101ad9190612c51565b61113f565b005b3480156101c057600080fd5b506101db60048036038101906101d69190612d05565b6117a1565b005b3480156101e957600080fd5b506101f2611ba1565b6040516101ff919061311c565b60405180910390f35b34801561021457600080fd5b5061021d611f31565b60405161022a919061325e565b60405180910390f35b61024d60048036038101906102489190612c11565b611f37565b005b34801561025b57600080fd5b5061027660048036038101906102719190612dce565b61257d565b005b3373ffffffffffffffffffffffffffffffffffffffff16600260008473ffffffffffffffffffffffffffffffffffffffff1673ffffffffffffffffffffffffffffffffffffffff168152602001908152602001600020600083815260200190815260200160002060020160009054906101000a900473ffffffffffffffffffffffffffffffffffffffff1673ffffffffffffffffffffffffffffffffffffffff1614610359576040517f08c379a00000000000000000000000000000000000000000000000000000000081526004016103509061313e565b60405180910390fd5b60011515600260008473ffffffffffffffffffffffffffffffffffffffff1673ffffffffffffffffffffffffffffffffffffffff168152602001908152602001600020600083815260200190815260200160002060070160009054906101000a900460ff16151514610400576040517f08c379a00000000000000000000000000000000000000000000000000000000081526004016103f7906131be565b60405180910390fd5b6000600260008473ffffffffffffffffffffffffffffffffffffffff1673ffffffffffffffffffffffffffffffffffffffff16815260200190815260200160002060008381526020019081526020016000206006015414610496576040517f08c379a000000000000000000000000000000000000000000000000000000000815260040161048d9061323e565b60405180910390fd5b6001600260008473ffffffffffffffffffffffffffffffffffffffff1673ffffffffffffffffffffffffffffffffffffffff168152602001908152602001600020600083815260200190815260200160002060070160026101000a81548160ff021916908315150217905550600180600083815260200190815260200160002060070160026101000a81548160ff0219169083151502179055506001600460003373ffffffffffffffffffffffffffffffffffffffff1673ffffffffffffffffffffffffffffffffffffffff168152602001908152602001600020600083815260200190815260200160002060070160026101000a81548160ff0219169083151502179055505050565b606060006105ae6000612634565b905060008167ffffffffffffffff8111156105cc576105cb61355e565b5b60405190808252806020026020018201604052801561060557816020015b6105f261292a565b8152602001906001900390816105ea5790505b50905060005b828110156109a157600060018261062291906132df565b905060011515600460008873ffffffffffffffffffffffffffffffffffffffff1673ffffffffffffffffffffffffffffffffffffffff168152602001908152602001600020600083815260200190815260200160002060070160029054906101000a900460ff1615151415610697575061098e565b600460008773ffffffffffffffffffffffffffffffffffffffff1673ffffffffffffffffffffffffffffffffffffffff16815260200190815260200160002060008281526020019081526020016000206040518061014001604052908160008201805461070390613427565b80601f016020809104026020016040519081016040528092919081815260200182805461072f90613427565b801561077c5780601f106107515761010080835404028352916020019161077c565b820191906000526020600020905b81548152906001019060200180831161075f57829003601f168201915b5050505050815260200160018201805461079590613427565b80601f01602080910402602001604051908101604052809291908181526020018280546107c190613427565b801561080e5780601f106107e35761010080835404028352916020019161080e565b820191906000526020600020905b8154815290600101906020018083116107f157829003601f168201915b505050505081526020016002820160009054906101000a900473ffffffffffffffffffffffffffffffffffffffff1673ffffffffffffffffffffffffffffffffffffffff1673ffffffffffffffffffffffffffffffffffffffff1681526020016003820154815260200160048201805461088790613427565b80601f01602080910402602001604051908101604052809291908181526020018280546108b390613427565b80156109005780601f106108d557610100808354040283529160200191610900565b820191906000526020600020905b8154815290600101906020018083116108e357829003601f168201915b5050505050815260200160058201548152602001600682015481526020016007820160009054906101000a900460ff161515151581526020016007820160019054906101000a900460ff161515151581526020016007820160029054906101000a900460ff1615151515815250508383815181106109815761098061352f565b5b6020026020010181905250505b808061099990613459565b91505061060b565b508092505050919050565b60095481565b3373ffffffffffffffffffffffffffffffffffffffff16600260008673ffffffffffffffffffffffffffffffffffffffff1673ffffffffffffffffffffffffffffffffffffffff168152602001908152602001600020600085815260200190815260200160002060020160009054906101000a900473ffffffffffffffffffffffffffffffffffffffff1673ffffffffffffffffffffffffffffffffffffffff1614610a93576040517f08c379a0000000000000000000000000000000000000000000000000000000008152600401610a8a9061313e565b60405180910390fd5b60011515600260008673ffffffffffffffffffffffffffffffffffffffff1673ffffffffffffffffffffffffffffffffffffffff168152602001908152602001600020600085815260200190815260200160002060070160009054906101000a900460ff16151514610b3a576040517f08c379a0000000000000000000000000000000000000000000000000000000008152600401610b31906131be565b60405180910390fd5b8181600260008773ffffffffffffffffffffffffffffffffffffffff1673ffffffffffffffffffffffffffffffffffffffff16815260200190815260200160002060008681526020019081526020016000206004019190610b9c929190612999565b506000600260008673ffffffffffffffffffffffffffffffffffffffff1673ffffffffffffffffffffffffffffffffffffffff168152602001908152602001600020600085815260200190815260200160002060070160006101000a81548160ff0219169083151502179055508181600160008681526020019081526020016000206004019190610c2e929190612999565b5060006001600085815260200190815260200160002060070160006101000a81548160ff0219169083151502179055508181600460003373ffffffffffffffffffffffffffffffffffffffff1673ffffffffffffffffffffffffffffffffffffffff16815260200190815260200160002060008681526020019081526020016000206004019190610cc0929190612999565b506000600460003373ffffffffffffffffffffffffffffffffffffffff1673ffffffffffffffffffffffffffffffffffffffff168152602001908152602001600020600085815260200190815260200160002060070160006101000a81548160ff02191690831515021790555050505050565b60606000610d416000612634565b905060008167ffffffffffffffff811115610d5f57610d5e61355e565b5b604051908082528060200260200182016040528015610d9857816020015b610d8561292a565b815260200190600190039081610d7d5790505b50905060005b82811015611134576000600182610db591906132df565b905060011515600260008873ffffffffffffffffffffffffffffffffffffffff1673ffffffffffffffffffffffffffffffffffffffff168152602001908152602001600020600083815260200190815260200160002060070160029054906101000a900460ff1615151415610e2a5750611121565b600260008773ffffffffffffffffffffffffffffffffffffffff1673ffffffffffffffffffffffffffffffffffffffff168152602001908152602001600020600082815260200190815260200160002060405180610140016040529081600082018054610e9690613427565b80601f0160208091040260200160405190810160405280929190818152602001828054610ec290613427565b8015610f0f5780601f10610ee457610100808354040283529160200191610f0f565b820191906000526020600020905b815481529060010190602001808311610ef257829003601f168201915b50505050508152602001600182018054610f2890613427565b80601f0160208091040260200160405190810160405280929190818152602001828054610f5490613427565b8015610fa15780601f10610f7657610100808354040283529160200191610fa1565b820191906000526020600020905b815481529060010190602001808311610f8457829003601f168201915b505050505081526020016002820160009054906101000a900473ffffffffffffffffffffffffffffffffffffffff1673ffffffffffffffffffffffffffffffffffffffff1673ffffffffffffffffffffffffffffffffffffffff1681526020016003820154815260200160048201805461101a90613427565b80601f016020809104026020016040519081016040528092919081815260200182805461104690613427565b80156110935780601f1061106857610100808354040283529160200191611093565b820191906000526020600020905b81548152906001019060200180831161107657829003601f168201915b5050505050815260200160058201548152602001600682015481526020016007820160009054906101000a900460ff161515151581526020016007820160019054906101000a900460ff161515151581526020016007820160029054906101000a900460ff1615151515815250508383815181106111145761111361352f565b5b6020026020010181905250505b808061112c90613459565b915050610d9e565b508092505050919050565b60011515600260008473ffffffffffffffffffffffffffffffffffffffff1673ffffffffffffffffffffffffffffffffffffffff168152602001908152602001600020600083815260200190815260200160002060070160009054906101000a900460ff161515146111e6576040517f08c379a00000000000000000000000000000000000000000000000000000000081526004016111dd906131be565b60405180910390fd5b60011515600260008473ffffffffffffffffffffffffffffffffffffffff1673ffffffffffffffffffffffffffffffffffffffff168152602001908152602001600020600083815260200190815260200160002060070160019054906101000a900460ff1615151461128d576040517f08c379a00000000000000000000000000000000000000000000000000000000081526004016112849061317e565b60405180910390fd5b60001515600260008473ffffffffffffffffffffffffffffffffffffffff1673ffffffffffffffffffffffffffffffffffffffff168152602001908152602001600020600083815260200190815260200160002060070160029054906101000a900460ff16151514611334576040517f08c379a000000000000000000000000000000000000000000000000000000000815260040161132b9061315e565b60405180910390fd5b34600260008473ffffffffffffffffffffffffffffffffffffffff1673ffffffffffffffffffffffffffffffffffffffff1681526020019081526020016000206000838152602001908152602001600020600601600082825461139791906132df565b92505081905550346001600083815260200190815260200160002060060160008282546113c491906132df565b92505081905550600260008373ffffffffffffffffffffffffffffffffffffffff1673ffffffffffffffffffffffffffffffffffffffff168152602001908152602001600020600082815260200190815260200160002060050154600260008473ffffffffffffffffffffffffffffffffffffffff1673ffffffffffffffffffffffffffffffffffffffff1681526020019081526020016000206000838152602001908152602001600020600601541415611515576000600260008473ffffffffffffffffffffffffffffffffffffffff1673ffffffffffffffffffffffffffffffffffffffff168152602001908152602001600020600083815260200190815260200160002060070160016101000a81548160ff02191690831515021790555060006001600083815260200190815260200160002060070160016101000a81548160ff0219169083151502179055505b6001600360003373ffffffffffffffffffffffffffffffffffffffff1673ffffffffffffffffffffffffffffffffffffffff168152602001908152602001600020600083815260200190815260200160002060006101000a81548160ff021916908315150217905550600033905061158d8183612642565b600260008473ffffffffffffffffffffffffffffffffffffffff1673ffffffffffffffffffffffffffffffffffffffff1681526020019081526020016000206000838152602001908152602001600020600460003373ffffffffffffffffffffffffffffffffffffffff1673ffffffffffffffffffffffffffffffffffffffff1681526020019081526020016000206000848152602001908152602001600020600082018160000190805461164190613427565b61164c929190612a1f565b50600182018160010190805461166190613427565b61166c929190612a1f565b506002820160009054906101000a900473ffffffffffffffffffffffffffffffffffffffff168160020160006101000a81548173ffffffffffffffffffffffffffffffffffffffff021916908373ffffffffffffffffffffffffffffffffffffffff1602179055506003820154816003015560048201816004019080546116f290613427565b6116fd929190612a1f565b5060058201548160050155600682015481600601556007820160009054906101000a900460ff168160070160006101000a81548160ff0219169083151502179055506007820160019054906101000a900460ff168160070160016101000a81548160ff0219169083151502179055506007820160029054906101000a900460ff168160070160026101000a81548160ff021916908315150217905550905050505050565b6117ab60006127ab565b60006117b76000612634565b905060006040518061014001604052808a8a8080601f016020809104026020016040519081016040528093929190818152602001838380828437600081840152601f19601f82011690508083019250505050505050815260200188888080601f016020809104026020016040519081016040528093929190818152602001838380828437600081840152601f19601f8201169050808301925050505050505081526020013373ffffffffffffffffffffffffffffffffffffffff16815260200183815260200186868080601f016020809104026020016040519081016040528093929190818152602001838380828437600081840152601f19601f8201169050808301925050505050505081526020018481526020016000815260200160011515815260200160011515815260200160001515815250905080600260003373ffffffffffffffffffffffffffffffffffffffff1673ffffffffffffffffffffffffffffffffffffffff1681526020019081526020016000206000848152602001908152602001600020600082015181600001908051906020019061195c929190612aac565b506020820151816001019080519060200190611979929190612aac565b5060408201518160020160006101000a81548173ffffffffffffffffffffffffffffffffffffffff021916908373ffffffffffffffffffffffffffffffffffffffff1602179055506060820151816003015560808201518160040190805190602001906119e7929190612aac565b5060a0820151816005015560c0820151816006015560e08201518160070160006101000a81548160ff0219169083151502179055506101008201518160070160016101000a81548160ff0219169083151502179055506101208201518160070160026101000a81548160ff02191690831515021790555090505080600160008481526020019081526020016000206000820151816000019080519060200190611a91929190612aac565b506020820151816001019080519060200190611aae929190612aac565b5060408201518160020160006101000a81548173ffffffffffffffffffffffffffffffffffffffff021916908373ffffffffffffffffffffffffffffffffffffffff160217905550606082015181600301556080820151816004019080519060200190611b1c929190612aac565b5060a0820151816005015560c0820151816006015560e08201518160070160006101000a81548160ff0219169083151502179055506101008201518160070160016101000a81548160ff0219169083151502179055506101208201518160070160026101000a81548160ff021916908315150217905550905050505050505050505050565b60606000611baf6000612634565b905060008167ffffffffffffffff811115611bcd57611bcc61355e565b5b604051908082528060200260200182016040528015611c0657816020015b611bf361292a565b815260200190600190039081611beb5790505b50905060005b82811015611f28576000600182611c2391906132df565b9050600115156001600083815260200190815260200160002060070160029054906101000a900460ff1615151415611c5b5750611f15565b6001600082815260200190815260200160002060405180610140016040529081600082018054611c8a90613427565b80601f0160208091040260200160405190810160405280929190818152602001828054611cb690613427565b8015611d035780601f10611cd857610100808354040283529160200191611d03565b820191906000526020600020905b815481529060010190602001808311611ce657829003601f168201915b50505050508152602001600182018054611d1c90613427565b80601f0160208091040260200160405190810160405280929190818152602001828054611d4890613427565b8015611d955780601f10611d6a57610100808354040283529160200191611d95565b820191906000526020600020905b815481529060010190602001808311611d7857829003601f168201915b505050505081526020016002820160009054906101000a900473ffffffffffffffffffffffffffffffffffffffff1673ffffffffffffffffffffffffffffffffffffffff1673ffffffffffffffffffffffffffffffffffffffff16815260200160038201548152602001600482018054611e0e90613427565b80601f0160208091040260200160405190810160405280929190818152602001828054611e3a90613427565b8015611e875780601f10611e5c57610100808354040283529160200191611e87565b820191906000526020600020905b815481529060010190602001808311611e6a57829003601f168201915b5050505050815260200160058201548152602001600682015481526020016007820160009054906101000a900460ff161515151581526020016007820160019054906101000a900460ff161515151581526020016007820160029054906101000a900460ff161515151581525050838381518110611f0857611f0761352f565b5b6020026020010181905250505b8080611f2090613459565b915050611c0c565b50809250505090565b600a5481565b3373ffffffffffffffffffffffffffffffffffffffff16600260008473ffffffffffffffffffffffffffffffffffffffff1673ffffffffffffffffffffffffffffffffffffffff168152602001908152602001600020600083815260200190815260200160002060020160009054906101000a900473ffffffffffffffffffffffffffffffffffffffff1673ffffffffffffffffffffffffffffffffffffffff1614612018576040517f08c379a000000000000000000000000000000000000000000000000000000000815260040161200f9061313e565b60405180910390fd5b60001515600260008473ffffffffffffffffffffffffffffffffffffffff1673ffffffffffffffffffffffffffffffffffffffff168152602001908152602001600020600083815260200190815260200160002060070160019054906101000a900460ff161515146120bf576040517f08c379a00000000000000000000000000000000000000000000000000000000081526004016120b69061321e565b60405180910390fd5b600260008373ffffffffffffffffffffffffffffffffffffffff1673ffffffffffffffffffffffffffffffffffffffff168152602001908152602001600020600082815260200190815260200160002060050154600260008473ffffffffffffffffffffffffffffffffffffffff1673ffffffffffffffffffffffffffffffffffffffff16815260200190815260200160002060008381526020019081526020016000206006015414156122b457600060028060008573ffffffffffffffffffffffffffffffffffffffff1673ffffffffffffffffffffffffffffffffffffffff1681526020019081526020016000206000848152602001908152602001600020600601546121ce9190613335565b90508273ffffffffffffffffffffffffffffffffffffffff166108fc829081150290604051600060405180830381858888f19350505050158015612216573d6000803e3d6000fd5b5080600260008573ffffffffffffffffffffffffffffffffffffffff1673ffffffffffffffffffffffffffffffffffffffff1681526020019081526020016000206000848152602001908152602001600020600601600082825461227a9190613366565b92505081905550806001600084815260200190815260200160002060060160008282546122a79190613366565b9250508190555050612579565b60028060008473ffffffffffffffffffffffffffffffffffffffff1673ffffffffffffffffffffffffffffffffffffffff1681526020019081526020016000206000838152602001908152602001600020600501546123139190613335565b600260008473ffffffffffffffffffffffffffffffffffffffff1673ffffffffffffffffffffffffffffffffffffffff168152602001908152602001600020600083815260200190815260200160002060060154116125785760006007600083815260200190815260200160002080549050116123c5576040517f08c379a00000000000000000000000000000000000000000000000000000000081526004016123bc906131fe565b60405180910390fd5b600460056000838152602001908152602001600020805490506123e89190613335565b60076000838152602001908152602001600020805490501015612440576040517f08c379a0000000000000000000000000000000000000000000000000000000008152600401612437906131de565b60405180910390fd5b6000600260008473ffffffffffffffffffffffffffffffffffffffff1673ffffffffffffffffffffffffffffffffffffffff16815260200190815260200160002060008381526020019081526020016000206006015490508273ffffffffffffffffffffffffffffffffffffffff166108fc829081150290604051600060405180830381858888f193505050501580156124de573d6000803e3d6000fd5b5080600260008573ffffffffffffffffffffffffffffffffffffffff1673ffffffffffffffffffffffffffffffffffffffff168152602001908152602001600020600084815260200190815260200160002060060160008282546125429190613366565b925050819055508060016000848152602001908152602001600020600601600082825461256f9190613366565b92505081905550505b5b5050565b60011515600360003373ffffffffffffffffffffffffffffffffffffffff1673ffffffffffffffffffffffffffffffffffffffff168152602001908152602001600020600083815260200190815260200160002060009054906101000a900460ff16151514612621576040517f08c379a00000000000000000000000000000000000000000000000000000000081526004016126189061319e565b60405180910390fd5b600033905061263082826127c1565b5050565b600081600001549050919050565b60001515600660008473ffffffffffffffffffffffffffffffffffffffff1673ffffffffffffffffffffffffffffffffffffffff168152602001908152602001600020600083815260200190815260200160002060009054906101000a900460ff161515141561278a5760056000828152602001908152602001600020829080600181540180825580915050600190039060005260206000200160009091909190916101000a81548173ffffffffffffffffffffffffffffffffffffffff021916908373ffffffffffffffffffffffffffffffffffffffff1602179055506001600660008473ffffffffffffffffffffffffffffffffffffffff1673ffffffffffffffffffffffffffffffffffffffff168152602001908152602001600020600083815260200190815260200160002060006101000a81548160ff0219169083151502179055505b60056000828152602001908152602001600020805490506009819055505050565b6001816000016000828254019250508190555050565b60001515600860008373ffffffffffffffffffffffffffffffffffffffff1673ffffffffffffffffffffffffffffffffffffffff168152602001908152602001600020600084815260200190815260200160002060009054906101000a900460ff16151514156129095760076000838152602001908152602001600020819080600181540180825580915050600190039060005260206000200160009091909190916101000a81548173ffffffffffffffffffffffffffffffffffffffff021916908373ffffffffffffffffffffffffffffffffffffffff1602179055506001600860008373ffffffffffffffffffffffffffffffffffffffff1673ffffffffffffffffffffffffffffffffffffffff168152602001908152602001600020600084815260200190815260200160002060006101000a81548160ff0219169083151502179055505b6007600083815260200190815260200160002080549050600a819055505050565b6040518061014001604052806060815260200160608152602001600073ffffffffffffffffffffffffffffffffffffffff168152602001600081526020016060815260200160008152602001600081526020016000151581526020016000151581526020016000151581525090565b8280546129a590613427565b90600052602060002090601f0160209004810192826129c75760008555612a0e565b82601f106129e057803560ff1916838001178555612a0e565b82800160010185558215612a0e579182015b82811115612a0d5782358255916020019190600101906129f2565b5b509050612a1b9190612b32565b5090565b828054612a2b90613427565b90600052602060002090601f016020900481019282612a4d5760008555612a9b565b82601f10612a5e5780548555612a9b565b82800160010185558215612a9b57600052602060002091601f016020900482015b82811115612a9a578254825591600101919060010190612a7f565b5b509050612aa89190612b32565b5090565b828054612ab890613427565b90600052602060002090601f016020900481019282612ada5760008555612b21565b82601f10612af357805160ff1916838001178555612b21565b82800160010185558215612b21579182015b82811115612b20578251825591602001919060010190612b05565b5b509050612b2e9190612b32565b5090565b5b80821115612b4b576000816000905550600101612b33565b5090565b600081359050612b5e816137e6565b92915050565b600081359050612b73816137fd565b92915050565b60008083601f840112612b8f57612b8e613592565b5b8235905067ffffffffffffffff811115612bac57612bab61358d565b5b602083019150836001820283011115612bc857612bc7613597565b5b9250929050565b600081359050612bde81613814565b92915050565b600060208284031215612bfa57612bf96135a1565b5b6000612c0884828501612b4f565b91505092915050565b60008060408385031215612c2857612c276135a1565b5b6000612c3685828601612b64565b9250506020612c4785828601612bcf565b9150509250929050565b60008060408385031215612c6857612c676135a1565b5b6000612c7685828601612b4f565b9250506020612c8785828601612bcf565b9150509250929050565b60008060008060608587031215612cab57612caa6135a1565b5b6000612cb987828801612b4f565b9450506020612cca87828801612bcf565b935050604085013567ffffffffffffffff811115612ceb57612cea61359c565b5b612cf787828801612b79565b925092505092959194509250565b60008060008060008060006080888a031215612d2457612d236135a1565b5b600088013567ffffffffffffffff811115612d4257612d4161359c565b5b612d4e8a828b01612b79565b9750975050602088013567ffffffffffffffff811115612d7157612d7061359c565b5b612d7d8a828b01612b79565b9550955050604088013567ffffffffffffffff811115612da057612d9f61359c565b5b612dac8a828b01612b79565b93509350506060612dbf8a828b01612bcf565b91505092959891949750929550565b600060208284031215612de457612de36135a1565b5b6000612df284828501612bcf565b91505092915050565b6000612e078383613016565b905092915050565b612e188161339a565b82525050565b6000612e2982613289565b612e3381856132ac565b935083602082028501612e4585613279565b8060005b85811015612e815784840389528151612e628582612dfb565b9450612e6d8361329f565b925060208a01995050600181019050612e49565b50829750879550505050505092915050565b612e9c816133be565b82525050565b6000612ead82613294565b612eb781856132bd565b9350612ec78185602086016133f4565b612ed0816135a6565b840191505092915050565b6000612ee86027836132ce565b9150612ef3826135b7565b604082019050919050565b6000612f0b6010836132ce565b9150612f1682613606565b602082019050919050565b6000612f2e600e836132ce565b9150612f398261362f565b602082019050919050565b6000612f51601e836132ce565b9150612f5c82613658565b602082019050919050565b6000612f74600f836132ce565b9150612f7f82613681565b602082019050919050565b6000612f976044836132ce565b9150612fa2826136aa565b606082019050919050565b6000612fba6025836132ce565b9150612fc58261371f565b604082019050919050565b6000612fdd6016836132ce565b9150612fe88261376e565b602082019050919050565b6000613000602f836132ce565b915061300b82613797565b604082019050919050565b60006101408301600083015184820360008601526130348282612ea2565b9150506020830151848203602086015261304e8282612ea2565b91505060408301516130636040860182612e0f565b50606083015161307660608601826130fe565b506080830151848203608086015261308e8282612ea2565b91505060a08301516130a360a08601826130fe565b5060c08301516130b660c08601826130fe565b5060e08301516130c960e0860182612e93565b506101008301516130de610100860182612e93565b506101208301516130f3610120860182612e93565b508091505092915050565b613107816133ea565b82525050565b613116816133ea565b82525050565b600060208201905081810360008301526131368184612e1e565b905092915050565b6000602082019050818103600083015261315781612edb565b9050919050565b6000602082019050818103600083015261317781612efe565b9050919050565b6000602082019050818103600083015261319781612f21565b9050919050565b600060208201905081810360008301526131b781612f44565b9050919050565b600060208201905081810360008301526131d781612f67565b9050919050565b600060208201905081810360008301526131f781612f8a565b9050919050565b6000602082019050818103600083015261321781612fad565b9050919050565b6000602082019050818103600083015261323781612fd0565b9050919050565b6000602082019050818103600083015261325781612ff3565b9050919050565b6000602082019050613273600083018461310d565b92915050565b6000819050602082019050919050565b600081519050919050565b600081519050919050565b6000602082019050919050565b600082825260208201905092915050565b600082825260208201905092915050565b600082825260208201905092915050565b60006132ea826133ea565b91506132f5836133ea565b9250827fffffffffffffffffffffffffffffffffffffffffffffffffffffffffffffffff0382111561332a576133296134a2565b5b828201905092915050565b6000613340826133ea565b915061334b836133ea565b92508261335b5761335a6134d1565b5b828204905092915050565b6000613371826133ea565b915061337c836133ea565b92508282101561338f5761338e6134a2565b5b828203905092915050565b60006133a5826133ca565b9050919050565b60006133b7826133ca565b9050919050565b60008115159050919050565b600073ffffffffffffffffffffffffffffffffffffffff82169050919050565b6000819050919050565b60005b838110156134125780820151818401526020810190506133f7565b83811115613421576000848401525b50505050565b6000600282049050600182168061343f57607f821691505b6020821081141561345357613452613500565b5b50919050565b6000613464826133ea565b91507fffffffffffffffffffffffffffffffffffffffffffffffffffffffffffffffff821415613497576134966134a2565b5b600182019050919050565b7f4e487b7100000000000000000000000000000000000000000000000000000000600052601160045260246000fd5b7f4e487b7100000000000000000000000000000000000000000000000000000000600052601260045260246000fd5b7f4e487b7100000000000000000000000000000000000000000000000000000000600052602260045260246000fd5b7f4e487b7100000000000000000000000000000000000000000000000000000000600052603260045260246000fd5b7f4e487b7100000000000000000000000000000000000000000000000000000000600052604160045260246000fd5b600080fd5b600080fd5b600080fd5b600080fd5b600080fd5b6000601f19601f8301169050919050565b7f796f7520617265206e6f7420746865206f776e6572206f66207468697320636160008201527f6d706169676e2e00000000000000000000000000000000000000000000000000602082015250565b7f63616d706169676e2064656c6574656400000000000000000000000000000000600082015250565b7f5461726765742072656163686564000000000000000000000000000000000000600082015250565b7f596f7520617265206e6f742070617274206f662074686520646f6e6f72730000600082015250565b7f63616d706169676e20636c6f7365640000000000000000000000000000000000600082015250565b7f5570746f20612071756172746572206f6620746f74616c20646f6e6f7273206860008201527f61766520746f20616363657074207468652070726f6a65637420636f6d706c6560208201527f74696f6e00000000000000000000000000000000000000000000000000000000604082015250565b7f50726f6a656374206e6f7420616363657074656420627920616e7920646f6e6f60008201527f7220796574000000000000000000000000000000000000000000000000000000602082015250565b7f46756e64696e67207374696c6c20676f696e67206f6e00000000000000000000600082015250565b7f596f752063616e742064656c657465206e6f772e2046756e647320696e64736960008201527f6465207468652063616d706169676e0000000000000000000000000000000000602082015250565b6137ef8161339a565b81146137fa57600080fd5b50565b613806816133ac565b811461381157600080fd5b50565b61381d816133ea565b811461382857600080fd5b5056fea264697066735822122049117bce01ea721ce5a33aafb3afd9b83699360c2222d3f9e64b5c4434e3ea5064736f6c63430008070033",
  "linkReferences": {},
  "deployedLinkReferences": {}
}