{
  "_format": "hh-sol-artifact-1",
  "contractName": "VotingOrganizer",
  "sourceName": "contracts/VotingOrganizer.sol",
  "abi": [
    {
      "anonymous": false,
      "inputs": [
        {
          "indexed": true,
          "internalType": "address",
          "name": "_address_contestant",
          "type": "address"
        },
        {
          "indexed": false,
          "internalType": "string",
          "name": "_contestant_name",
          "type": "string"
        },
        {
          "indexed": false,
          "internalType": "string",
          "name": "_contestant_image",
          "type": "string"
        },
        {
          "indexed": false,
          "internalType": "string",
          "name": "_election_name",
          "type": "string"
        }
      ],
      "name": "Created_Contestant",
      "type": "event"
    },
    {
      "anonymous": false,
      "inputs": [
        {
          "indexed": false,
          "internalType": "address",
          "name": "_address_contestant",
          "type": "address"
        },
        {
          "indexed": false,
          "internalType": "address",
          "name": "_voter",
          "type": "address"
        },
        {
          "indexed": false,
          "internalType": "uint256",
          "name": "number_of_votes",
          "type": "uint256"
        }
      ],
      "name": "Voted",
      "type": "event"
    },
    {
      "inputs": [
        {
          "internalType": "string",
          "name": "_election_name",
          "type": "string"
        },
        {
          "internalType": "string",
          "name": "_contestant_name",
          "type": "string"
        },
        {
          "internalType": "address",
          "name": "_address_contestant",
          "type": "address"
        },
        {
          "internalType": "string",
          "name": "_contestant_image",
          "type": "string"
        }
      ],
      "name": "createContestant",
      "outputs": [],
      "stateMutability": "nonpayable",
      "type": "function"
    },
    {
      "inputs": [],
      "name": "getContestants",
      "outputs": [
        {
          "components": [
            {
              "internalType": "string",
              "name": "election_name",
              "type": "string"
            },
            {
              "internalType": "address",
              "name": "creator",
              "type": "address"
            },
            {
              "internalType": "uint256",
              "name": "if_registered",
              "type": "uint256"
            },
            {
              "internalType": "uint256",
              "name": "number_of_votes",
              "type": "uint256"
            },
            {
              "internalType": "string",
              "name": "contestant_name",
              "type": "string"
            },
            {
              "internalType": "string",
              "name": "contestant_image",
              "type": "string"
            },
            {
              "internalType": "address",
              "name": "address_contestant",
              "type": "address"
            }
          ],
          "internalType": "struct VotingOrganizer.Contestant[]",
          "name": "",
          "type": "tuple[]"
        }
      ],
      "stateMutability": "view",
      "type": "function"
    },
    {
      "inputs": [
        {
          "internalType": "address",
          "name": "_address_contestant",
          "type": "address"
        },
        {
          "internalType": "string",
          "name": "_election_name",
          "type": "string"
        }
      ],
      "name": "place_vote",
      "outputs": [],
      "stateMutability": "nonpayable",
      "type": "function"
    }
  ],
  "bytecode": "0x608060405234801561001057600080fd5b50611550806100206000396000f3fe608060405234801561001057600080fd5b50600436106100415760003560e01c8063453ccbd714610046578063c10196fa14610062578063ea32d56214610080575b600080fd5b610060600480360381019061005b9190610cf3565b61009c565b005b61006a61029f565b6040516100779190611142565b60405180910390f35b61009a60048036038101906100959190610d53565b610689565b005b6000600283836040516100b09291906110db565b908152602001604051809103902060003373ffffffffffffffffffffffffffffffffffffffff1673ffffffffffffffffffffffffffffffffffffffff168152602001908152602001600020600001541461013f576040517f08c379a0000000000000000000000000000000000000000000000000000000008152600401610136906111b6565b60405180910390fd5b6001600283836040516101539291906110db565b908152602001604051809103902060003373ffffffffffffffffffffffffffffffffffffffff1673ffffffffffffffffffffffffffffffffffffffff168152602001908152602001600020600001819055506001600383836040516101b99291906110db565b908152602001604051809103902060008573ffffffffffffffffffffffffffffffffffffffff1673ffffffffffffffffffffffffffffffffffffffff1681526020019081526020016000206003016000828254610216919061127c565b925050819055507f174ba19ba3c8bb5c679c87e51db79fff7c3f04bb84c1fd55b7dacb470b674aa68333600160008773ffffffffffffffffffffffffffffffffffffffff1673ffffffffffffffffffffffffffffffffffffffff168152602001908152602001600020600301546040516102929392919061110b565b60405180910390a1505050565b606060006102ad6000610ad2565b905060008167ffffffffffffffff8111156102cb576102ca611458565b5b60405190808252806020026020018201604052801561030457816020015b6102f1610af6565b8152602001906001900390816102e95790505b50905060005b8281101561068057600060036005838154811061032a57610329611429565b5b9060005260206000200160405161034191906110f4565b908152602001604051809103902060006004848154811061036557610364611429565b5b9060005260206000200160009054906101000a900473ffffffffffffffffffffffffffffffffffffffff1673ffffffffffffffffffffffffffffffffffffffff1673ffffffffffffffffffffffffffffffffffffffff1681526020019081526020016000206040518060e00160405290816000820180546103e590611350565b80601f016020809104026020016040519081016040528092919081815260200182805461041190611350565b801561045e5780601f106104335761010080835404028352916020019161045e565b820191906000526020600020905b81548152906001019060200180831161044157829003601f168201915b505050505081526020016001820160009054906101000a900473ffffffffffffffffffffffffffffffffffffffff1673ffffffffffffffffffffffffffffffffffffffff1673ffffffffffffffffffffffffffffffffffffffff16815260200160028201548152602001600382015481526020016004820180546104e190611350565b80601f016020809104026020016040519081016040528092919081815260200182805461050d90611350565b801561055a5780601f1061052f5761010080835404028352916020019161055a565b820191906000526020600020905b81548152906001019060200180831161053d57829003601f168201915b5050505050815260200160058201805461057390611350565b80601f016020809104026020016040519081016040528092919081815260200182805461059f90611350565b80156105ec5780601f106105c1576101008083540402835291602001916105ec565b820191906000526020600020905b8154815290600101906020018083116105cf57829003601f168201915b505050505081526020016006820160009054906101000a900473ffffffffffffffffffffffffffffffffffffffff1673ffffffffffffffffffffffffffffffffffffffff1673ffffffffffffffffffffffffffffffffffffffff168152505090508083838151811061066157610660611429565b5b602002602001018190525050808061067890611382565b91505061030a565b50809250505090565b60006003888860405161069d9291906110db565b908152602001604051809103902060008573ffffffffffffffffffffffffffffffffffffffff1673ffffffffffffffffffffffffffffffffffffffff168152602001908152602001600020600201541461072c576040517f08c379a0000000000000000000000000000000000000000000000000000000008152600401610723906111d6565b60405180910390fd5b6107366000610ae0565b60006107426000610ad2565b905060006040518060e001604052808a8a8080601f016020809104026020016040519081016040528093929190818152602001838380828437600081840152601f19601f8201169050808301925050505050505081526020013373ffffffffffffffffffffffffffffffffffffffff1681526020018381526020016000815260200188888080601f016020809104026020016040519081016040528093929190818152602001838380828437600081840152601f19601f82011690508083019250505050505050815260200185858080601f016020809104026020016040519081016040528093929190818152602001838380828437600081840152601f19601f8201169050808301925050505050505081526020018673ffffffffffffffffffffffffffffffffffffffff1681525090508060038a8a6040516108879291906110db565b908152602001604051809103902060008773ffffffffffffffffffffffffffffffffffffffff1673ffffffffffffffffffffffffffffffffffffffff16815260200190815260200160002060008201518160000190805190602001906108ee929190610b5f565b5060208201518160010160006101000a81548173ffffffffffffffffffffffffffffffffffffffff021916908373ffffffffffffffffffffffffffffffffffffffff16021790555060408201518160020155606082015181600301556080820151816004019080519060200190610966929190610b5f565b5060a0820151816005019080519060200190610983929190610b5f565b5060c08201518160060160006101000a81548173ffffffffffffffffffffffffffffffffffffffff021916908373ffffffffffffffffffffffffffffffffffffffff1602179055509050506004859080600181540180825580915050600190039060005260206000200160009091909190916101000a81548173ffffffffffffffffffffffffffffffffffffffff021916908373ffffffffffffffffffffffffffffffffffffffff1602179055506005898990918060018154018082558091505060019003906000526020600020016000909192909192909192909192509190610a6e929190610be5565b508473ffffffffffffffffffffffffffffffffffffffff167fabfa1c57ec90b86e2cece03fc06b3c3e41f26fa762236c8f62b8c2f9fdd421e9888887878c8c604051610abf96959493929190611164565b60405180910390a2505050505050505050565b600081600001549050919050565b6001816000016000828254019250508190555050565b6040518060e0016040528060608152602001600073ffffffffffffffffffffffffffffffffffffffff16815260200160008152602001600081526020016060815260200160608152602001600073ffffffffffffffffffffffffffffffffffffffff1681525090565b828054610b6b90611350565b90600052602060002090601f016020900481019282610b8d5760008555610bd4565b82601f10610ba657805160ff1916838001178555610bd4565b82800160010185558215610bd4579182015b82811115610bd3578251825591602001919060010190610bb8565b5b509050610be19190610c6b565b5090565b828054610bf190611350565b90600052602060002090601f016020900481019282610c135760008555610c5a565b82601f10610c2c57803560ff1916838001178555610c5a565b82800160010185558215610c5a579182015b82811115610c59578235825591602001919060010190610c3e565b5b509050610c679190610c6b565b5090565b5b80821115610c84576000816000905550600101610c6c565b5090565b600081359050610c9781611503565b92915050565b60008083601f840112610cb357610cb261148c565b5b8235905067ffffffffffffffff811115610cd057610ccf611487565b5b602083019150836001820283011115610cec57610ceb611491565b5b9250929050565b600080600060408486031215610d0c57610d0b61149b565b5b6000610d1a86828701610c88565b935050602084013567ffffffffffffffff811115610d3b57610d3a611496565b5b610d4786828701610c9d565b92509250509250925092565b60008060008060008060006080888a031215610d7257610d7161149b565b5b600088013567ffffffffffffffff811115610d9057610d8f611496565b5b610d9c8a828b01610c9d565b9750975050602088013567ffffffffffffffff811115610dbf57610dbe611496565b5b610dcb8a828b01610c9d565b95509550506040610dde8a828b01610c88565b935050606088013567ffffffffffffffff811115610dff57610dfe611496565b5b610e0b8a828b01610c9d565b925092505092959891949750929550565b6000610e288383611013565b905092915050565b610e39816112d2565b82525050565b610e48816112d2565b82525050565b6000610e598261121b565b610e63818561123e565b935083602082028501610e75856111f6565b8060005b85811015610eb15784840389528151610e928582610e1c565b9450610e9d83611231565b925060208a01995050600181019050610e79565b50829750879550505050505092915050565b6000610ecf8385611260565b9350610edc83858461130e565b610ee5836114a0565b840190509392505050565b6000610efc8385611271565b9350610f0983858461130e565b82840190509392505050565b6000610f2082611226565b610f2a818561124f565b9350610f3a81856020860161131d565b610f43816114a0565b840191505092915050565b60008154610f5b81611350565b610f658186611271565b94506001821660008114610f805760018114610f9157610fc4565b60ff19831686528186019350610fc4565b610f9a85611206565b60005b83811015610fbc57815481890152600182019150602081019050610f9d565b838801955050505b50505092915050565b6000610fda601e83611260565b9150610fe5826114b1565b602082019050919050565b6000610ffd601f83611260565b9150611008826114da565b602082019050919050565b600060e08301600083015184820360008601526110308282610f15565b91505060208301516110456020860182610e30565b50604083015161105860408601826110bd565b50606083015161106b60608601826110bd565b50608083015184820360808601526110838282610f15565b91505060a083015184820360a086015261109d8282610f15565b91505060c08301516110b260c0860182610e30565b508091505092915050565b6110c681611304565b82525050565b6110d581611304565b82525050565b60006110e8828486610ef0565b91508190509392505050565b60006111008284610f4e565b915081905092915050565b60006060820190506111206000830186610e3f565b61112d6020830185610e3f565b61113a60408301846110cc565b949350505050565b6000602082019050818103600083015261115c8184610e4e565b905092915050565b6000606082019050818103600083015261117f81888a610ec3565b90508181036020830152611194818688610ec3565b905081810360408301526111a9818486610ec3565b9050979650505050505050565b600060208201905081810360008301526111cf81610fcd565b9050919050565b600060208201905081810360008301526111ef81610ff0565b9050919050565b6000819050602082019050919050565b60008190508160005260206000209050919050565b600081519050919050565b600081519050919050565b6000602082019050919050565b600082825260208201905092915050565b600082825260208201905092915050565b600082825260208201905092915050565b600081905092915050565b600061128782611304565b915061129283611304565b9250827fffffffffffffffffffffffffffffffffffffffffffffffffffffffffffffffff038211156112c7576112c66113cb565b5b828201905092915050565b60006112dd826112e4565b9050919050565b600073ffffffffffffffffffffffffffffffffffffffff82169050919050565b6000819050919050565b82818337600083830152505050565b60005b8381101561133b578082015181840152602081019050611320565b8381111561134a576000848401525b50505050565b6000600282049050600182168061136857607f821691505b6020821081141561137c5761137b6113fa565b5b50919050565b600061138d82611304565b91507fffffffffffffffffffffffffffffffffffffffffffffffffffffffffffffffff8214156113c0576113bf6113cb565b5b600182019050919050565b7f4e487b7100000000000000000000000000000000000000000000000000000000600052601160045260246000fd5b7f4e487b7100000000000000000000000000000000000000000000000000000000600052602260045260246000fd5b7f4e487b7100000000000000000000000000000000000000000000000000000000600052603260045260246000fd5b7f4e487b7100000000000000000000000000000000000000000000000000000000600052604160045260246000fd5b600080fd5b600080fd5b600080fd5b600080fd5b600080fd5b6000601f19601f8301169050919050565b7f416c726561647920766f74656420696e207468697320656c656374696f6e0000600082015250565b7f4164647265737320616374697665206173206120636f6e74656e7374616e7400600082015250565b61150c816112d2565b811461151757600080fd5b5056fea2646970667358221220e5ecd4d1d15c2b8e51b8f27bb0aae7b9359b808a66356e6667dcfb16149210db64736f6c63430008070033",
  "linkReferences": {},
  "deployedLinkReferences": {}
}